{
    "abi": [
        {
            "inputs": [
                {
                    "internalType": "address",
                    "name": "_creditsToken",
                    "type": "address"
                }
            ],
            "stateMutability": "nonpayable",
            "type": "constructor"
        },
        {
            "anonymous": false,
            "inputs": [
                {
                    "indexed": true,
                    "internalType": "address",
                    "name": "user",
                    "type": "address"
                },
                {
                    "indexed": false,
                    "internalType": "uint256",
                    "name": "tokenAmount",
                    "type": "uint256"
                }
            ],
            "name": "AIQueried",
            "type": "event"
        },
        {
            "inputs": [
                {
                    "internalType": "address",
                    "name": "user",
                    "type": "address"
                }
            ],
            "name": "checkUserAllowance",
            "outputs": [
                {
                    "internalType": "uint256",
                    "name": "",
                    "type": "uint256"
                }
            ],
            "stateMutability": "view",
            "type": "function"
        },
        {
            "inputs": [
                {
                    "internalType": "address",
                    "name": "user",
                    "type": "address"
                }
            ],
            "name": "checkUserBalance",
            "outputs": [
                {
                    "internalType": "uint256",
                    "name": "",
                    "type": "uint256"
                }
            ],
            "stateMutability": "view",
            "type": "function"
        },
        {
            "inputs": [],
            "name": "creditsTokenAddress",
            "outputs": [
                {
                    "internalType": "address",
                    "name": "",
                    "type": "address"
                }
            ],
            "stateMutability": "view",
            "type": "function"
        },
        {
            "inputs": [
                {
                    "internalType": "address",
                    "name": "operator",
                    "type": "address"
                },
                {
                    "internalType": "address",
                    "name": "from",
                    "type": "address"
                },
                {
                    "internalType": "uint256",
                    "name": "value",
                    "type": "uint256"
                },
                {
                    "internalType": "bytes",
                    "name": "data",
                    "type": "bytes"
                }
            ],
            "name": "onTransferReceived",
            "outputs": [
                {
                    "internalType": "bytes4",
                    "name": "",
                    "type": "bytes4"
                }
            ],
            "stateMutability": "nonpayable",
            "type": "function"
        },
        {
            "inputs": [
                {
                    "internalType": "uint256",
                    "name": "queryCostInCredits",
                    "type": "uint256"
                }
            ],
            "name": "queryAI",
            "outputs": [],
            "stateMutability": "nonpayable",
            "type": "function"
        },
        {
            "inputs": [],
            "name": "totalTokensCollected",
            "outputs": [
                {
                    "internalType": "uint256",
                    "name": "",
                    "type": "uint256"
                }
            ],
            "stateMutability": "view",
            "type": "function"
        }
    ],
    "bytecode": {
        "object": "0x608060405234801561001057600080fd5b5060405161072f38038061072f83398101604081905261002f91610054565b600080546001600160a01b0319166001600160a01b0392909216919091179055610084565b60006020828403121561006657600080fd5b81516001600160a01b038116811461007d57600080fd5b9392505050565b61069c806100936000396000f3fe608060405234801561001057600080fd5b50600436106100625760003560e01c80630a9bfef5146100675780633c7cf90f1461008d5780637bc85025146100a257806388a7ca5c146100ab578063b171289d146100d7578063c6a2f07f146100ea575b600080fd5b61007a610075366004610534565b610115565b6040519081526020015b60405180910390f35b6100a061009b366004610556565b61018b565b005b61007a60015481565b6100be6100b936600461056f565b61041d565b6040516001600160e01b03199091168152602001610084565b61007a6100e5366004610534565b6104df565b6000546100fd906001600160a01b031681565b6040516001600160a01b039091168152602001610084565b600080546040516370a0823160e01b81526001600160a01b038481166004830152909116906370a08231906024015b602060405180830381865afa158015610161573d6000803e3d6000fd5b505050506040513d601f19601f82011682018060405250810190610185919061060a565b92915050565b6000546040516370a0823160e01b815233600482015282916001600160a01b0316906370a0823190602401602060405180830381865afa1580156101d3573d6000803e3d6000fd5b505050506040513d601f19601f820116820180604052508101906101f7919061060a565b101561024a5760405162461bcd60e51b815260206004820152601a60248201527f496e73756666696369656e7420746f6b656e2062616c616e636500000000000060448201526064015b60405180910390fd5b600054604051636eb1769f60e11b815233600482015230602482015282916001600160a01b03169063dd62ed3e90604401602060405180830381865afa158015610298573d6000803e3d6000fd5b505050506040513d601f19601f820116820180604052508101906102bc919061060a565b101561030a5760405162461bcd60e51b815260206004820152601c60248201527f496e73756666696369656e7420746f6b656e20616c6c6f77616e6365000000006044820152606401610241565b600080546040516323b872dd60e01b8152336004820152306024820152604481018490526001600160a01b03909116906323b872dd906064016020604051808303816000875af1158015610362573d6000803e3d6000fd5b505050506040513d601f19601f820116820180604052508101906103869190610623565b9050806103cd5760405162461bcd60e51b8152602060048201526015602482015274151bdad95b881d1c985b9cd9995c8819985a5b1959605a1b6044820152606401610241565b81600160008282546103df9190610645565b909155505060405182815233907f90b3c88ebb263f86dc57b3a640c6fa7ef24f09631f496c6f5a55fe96de457f3c9060200160405180910390a25050565b600080546001600160a01b031633146104785760405162461bcd60e51b815260206004820152601f60248201527f43616c6c6572206973206e6f7420746865206372656469747320746f6b656e006044820152606401610241565b836001600082825461048a9190610645565b90915550506040518481526001600160a01b038616907f90b3c88ebb263f86dc57b3a640c6fa7ef24f09631f496c6f5a55fe96de457f3c9060200160405180910390a250632229f29760e21b95945050505050565b60008054604051636eb1769f60e11b81526001600160a01b0384811660048301523060248301529091169063dd62ed3e90604401610144565b80356001600160a01b038116811461052f57600080fd5b919050565b60006020828403121561054657600080fd5b61054f82610518565b9392505050565b60006020828403121561056857600080fd5b5035919050565b60008060008060006080868803121561058757600080fd5b61059086610518565b945061059e60208701610518565b935060408601359250606086013567ffffffffffffffff808211156105c257600080fd5b818801915088601f8301126105d657600080fd5b8135818111156105e557600080fd5b8960208285010111156105f757600080fd5b9699959850939650602001949392505050565b60006020828403121561061c57600080fd5b5051919050565b60006020828403121561063557600080fd5b8151801515811461054f57600080fd5b8082018082111561018557634e487b7160e01b600052601160045260246000fdfea2646970667358221220a6788d07a4ed7e4acdfa341dd8acd303fcad44058b5be782252ce0306b0910a764736f6c63430008140033",
        "linkReferences": {}
    },
    "methodIdentifiers": {
        "checkUserAllowance(address)": "b171289d",
        "checkUserBalance(address)": "0a9bfef5",
        "creditsTokenAddress()": "c6a2f07f",
        "onTransferReceived(address,address,uint256,bytes)": "88a7ca5c",
        "queryAI(uint256)": "3c7cf90f",
        "totalTokensCollected()": "7bc85025"
    },
    "id": 54
}