{
    "abi": [
        {
            "inputs": [
                {
                    "internalType": "address",
                    "name": "_creditsToken",
                    "type": "address"
                },
                {
                    "internalType": "address",
                    "name": "_oracle",
                    "type": "address"
                }
            ],
            "stateMutability": "nonpayable",
            "type": "constructor"
        },
        {
            "inputs": [],
            "name": "depositBaseTokens",
            "outputs": [],
            "stateMutability": "payable",
            "type": "function"
        },
        {
            "inputs": [],
            "name": "getPrice",
            "outputs": [
                {
                    "internalType": "int256",
                    "name": "",
                    "type": "int256"
                }
            ],
            "stateMutability": "view",
            "type": "function"
        }
    ],
    "bytecode": {
        "object": "0x608060405234801561001057600080fd5b506040516103bd3803806103bd83398101604081905261002f9161007c565b600080546001600160a01b039384166001600160a01b031991821617909155600180549290931691161790556100af565b80516001600160a01b038116811461007757600080fd5b919050565b6000806040838503121561008f57600080fd5b61009883610060565b91506100a660208401610060565b90509250929050565b6102ff806100be6000396000f3fe6080604052600436106100295760003560e01c80630de050351461002e57806398d5fdca14610038575b600080fd5b61003661005f565b005b34801561004457600080fd5b5061004d610188565b60405190815260200160405180910390f35b600034116100a45760405162461bcd60e51b815260206004820152600d60248201526c09aeae6e840a6cadcc8408aa89609b1b60448201526064015b60405180910390fd5b60006100ae610188565b9050600081136101005760405162461bcd60e51b815260206004820152601d60248201527f496e76616c6964204554482070726963652066726f6d206f7261636c65000000604482015260640161009b565b60006101106305f5e1008361020d565b9050600061011e348361022f565b6000546040516340c10f1960e01b8152336004820152602481018390529192506001600160a01b0316906340c10f1990604401600060405180830381600087803b15801561016b57600080fd5b505af115801561017f573d6000803e3d6000fd5b50505050505050565b600080600160009054906101000a90046001600160a01b03166001600160a01b031663feaf968c6040518163ffffffff1660e01b815260040160a060405180830381865afa1580156101de573d6000803e3d6000fd5b505050506040513d601f19601f820116820180604052508101906102029190610279565b509195945050505050565b60008261022a57634e487b7160e01b600052601260045260246000fd5b500490565b808202811582820484141761025457634e487b7160e01b600052601160045260246000fd5b92915050565b805169ffffffffffffffffffff8116811461027457600080fd5b919050565b600080600080600060a0868803121561029157600080fd5b61029a8661025a565b94506020860151935060408601519250606086015191506102bd6080870161025a565b9050929550929590935056fea2646970667358221220a818d0537abe5705bad2bc960478bfec6aef89a0a2b16c6bd95632f93204c0e864736f6c63430008140033",
        "linkReferences": {}
    },
    "methodIdentifiers": {
        "depositBaseTokens()": "0de05035",
        "getPrice()": "98d5fdca"
    },
    "id": 54
}