{
    "abi": [
        {
            "inputs": [
                {
                    "internalType": "address",
                    "name": "recipient",
                    "type": "address"
                },
                {
                    "internalType": "address",
                    "name": "initialOwner",
                    "type": "address"
                }
            ],
            "stateMutability": "nonpayable",
            "type": "constructor"
        },
        {
            "inputs": [],
            "name": "ECDSAInvalidSignature",
            "type": "error"
        },
        {
            "inputs": [
                {
                    "internalType": "uint256",
                    "name": "length",
                    "type": "uint256"
                }
            ],
            "name": "ECDSAInvalidSignatureLength",
            "type": "error"
        },
        {
            "inputs": [
                {
                    "internalType": "bytes32",
                    "name": "s",
                    "type": "bytes32"
                }
            ],
            "name": "ECDSAInvalidSignatureS",
            "type": "error"
        },
        {
            "inputs": [
                {
                    "internalType": "address",
                    "name": "spender",
                    "type": "address"
                },
                {
                    "internalType": "uint256",
                    "name": "value",
                    "type": "uint256"
                }
            ],
            "name": "ERC1363ApproveFailed",
            "type": "error"
        },
        {
            "inputs": [
                {
                    "internalType": "address",
                    "name": "receiver",
                    "type": "address"
                }
            ],
            "name": "ERC1363InvalidReceiver",
            "type": "error"
        },
        {
            "inputs": [
                {
                    "internalType": "address",
                    "name": "spender",
                    "type": "address"
                }
            ],
            "name": "ERC1363InvalidSpender",
            "type": "error"
        },
        {
            "inputs": [
                {
                    "internalType": "address",
                    "name": "receiver",
                    "type": "address"
                },
                {
                    "internalType": "uint256",
                    "name": "value",
                    "type": "uint256"
                }
            ],
            "name": "ERC1363TransferFailed",
            "type": "error"
        },
        {
            "inputs": [
                {
                    "internalType": "address",
                    "name": "sender",
                    "type": "address"
                },
                {
                    "internalType": "address",
                    "name": "receiver",
                    "type": "address"
                },
                {
                    "internalType": "uint256",
                    "name": "value",
                    "type": "uint256"
                }
            ],
            "name": "ERC1363TransferFromFailed",
            "type": "error"
        },
        {
            "inputs": [
                {
                    "internalType": "address",
                    "name": "spender",
                    "type": "address"
                },
                {
                    "internalType": "uint256",
                    "name": "allowance",
                    "type": "uint256"
                },
                {
                    "internalType": "uint256",
                    "name": "needed",
                    "type": "uint256"
                }
            ],
            "name": "ERC20InsufficientAllowance",
            "type": "error"
        },
        {
            "inputs": [
                {
                    "internalType": "address",
                    "name": "sender",
                    "type": "address"
                },
                {
                    "internalType": "uint256",
                    "name": "balance",
                    "type": "uint256"
                },
                {
                    "internalType": "uint256",
                    "name": "needed",
                    "type": "uint256"
                }
            ],
            "name": "ERC20InsufficientBalance",
            "type": "error"
        },
        {
            "inputs": [
                {
                    "internalType": "address",
                    "name": "approver",
                    "type": "address"
                }
            ],
            "name": "ERC20InvalidApprover",
            "type": "error"
        },
        {
            "inputs": [
                {
                    "internalType": "address",
                    "name": "receiver",
                    "type": "address"
                }
            ],
            "name": "ERC20InvalidReceiver",
            "type": "error"
        },
        {
            "inputs": [
                {
                    "internalType": "address",
                    "name": "sender",
                    "type": "address"
                }
            ],
            "name": "ERC20InvalidSender",
            "type": "error"
        },
        {
            "inputs": [
                {
                    "internalType": "address",
                    "name": "spender",
                    "type": "address"
                }
            ],
            "name": "ERC20InvalidSpender",
            "type": "error"
        },
        {
            "inputs": [
                {
                    "internalType": "uint256",
                    "name": "deadline",
                    "type": "uint256"
                }
            ],
            "name": "ERC2612ExpiredSignature",
            "type": "error"
        },
        {
            "inputs": [
                {
                    "internalType": "address",
                    "name": "signer",
                    "type": "address"
                },
                {
                    "internalType": "address",
                    "name": "owner",
                    "type": "address"
                }
            ],
            "name": "ERC2612InvalidSigner",
            "type": "error"
        },
        {
            "inputs": [],
            "name": "EnforcedPause",
            "type": "error"
        },
        {
            "inputs": [],
            "name": "ExpectedPause",
            "type": "error"
        },
        {
            "inputs": [
                {
                    "internalType": "address",
                    "name": "account",
                    "type": "address"
                },
                {
                    "internalType": "uint256",
                    "name": "currentNonce",
                    "type": "uint256"
                }
            ],
            "name": "InvalidAccountNonce",
            "type": "error"
        },
        {
            "inputs": [],
            "name": "InvalidShortString",
            "type": "error"
        },
        {
            "inputs": [
                {
                    "internalType": "address",
                    "name": "owner",
                    "type": "address"
                }
            ],
            "name": "OwnableInvalidOwner",
            "type": "error"
        },
        {
            "inputs": [
                {
                    "internalType": "address",
                    "name": "account",
                    "type": "address"
                }
            ],
            "name": "OwnableUnauthorizedAccount",
            "type": "error"
        },
        {
            "inputs": [
                {
                    "internalType": "string",
                    "name": "str",
                    "type": "string"
                }
            ],
            "name": "StringTooLong",
            "type": "error"
        },
        {
            "anonymous": false,
            "inputs": [
                {
                    "indexed": true,
                    "internalType": "address",
                    "name": "owner",
                    "type": "address"
                },
                {
                    "indexed": true,
                    "internalType": "address",
                    "name": "spender",
                    "type": "address"
                },
                {
                    "indexed": false,
                    "internalType": "uint256",
                    "name": "value",
                    "type": "uint256"
                }
            ],
            "name": "Approval",
            "type": "event"
        },
        {
            "anonymous": false,
            "inputs": [],
            "name": "EIP712DomainChanged",
            "type": "event"
        },
        {
            "anonymous": false,
            "inputs": [
                {
                    "indexed": true,
                    "internalType": "address",
                    "name": "previousOwner",
                    "type": "address"
                },
                {
                    "indexed": true,
                    "internalType": "address",
                    "name": "newOwner",
                    "type": "address"
                }
            ],
            "name": "OwnershipTransferred",
            "type": "event"
        },
        {
            "anonymous": false,
            "inputs": [
                {
                    "indexed": false,
                    "internalType": "address",
                    "name": "account",
                    "type": "address"
                }
            ],
            "name": "Paused",
            "type": "event"
        },
        {
            "anonymous": false,
            "inputs": [
                {
                    "indexed": true,
                    "internalType": "address",
                    "name": "from",
                    "type": "address"
                },
                {
                    "indexed": true,
                    "internalType": "address",
                    "name": "to",
                    "type": "address"
                },
                {
                    "indexed": false,
                    "internalType": "uint256",
                    "name": "value",
                    "type": "uint256"
                }
            ],
            "name": "Transfer",
            "type": "event"
        },
        {
            "anonymous": false,
            "inputs": [
                {
                    "indexed": false,
                    "internalType": "address",
                    "name": "account",
                    "type": "address"
                }
            ],
            "name": "Unpaused",
            "type": "event"
        },
        {
            "inputs": [],
            "name": "DOMAIN_SEPARATOR",
            "outputs": [
                {
                    "internalType": "bytes32",
                    "name": "",
                    "type": "bytes32"
                }
            ],
            "stateMutability": "view",
            "type": "function"
        },
        {
            "inputs": [
                {
                    "internalType": "address",
                    "name": "owner",
                    "type": "address"
                },
                {
                    "internalType": "address",
                    "name": "spender",
                    "type": "address"
                }
            ],
            "name": "allowance",
            "outputs": [
                {
                    "internalType": "uint256",
                    "name": "",
                    "type": "uint256"
                }
            ],
            "stateMutability": "view",
            "type": "function"
        },
        {
            "inputs": [
                {
                    "internalType": "address",
                    "name": "spender",
                    "type": "address"
                },
                {
                    "internalType": "uint256",
                    "name": "value",
                    "type": "uint256"
                }
            ],
            "name": "approve",
            "outputs": [
                {
                    "internalType": "bool",
                    "name": "",
                    "type": "bool"
                }
            ],
            "stateMutability": "nonpayable",
            "type": "function"
        },
        {
            "inputs": [
                {
                    "internalType": "address",
                    "name": "spender",
                    "type": "address"
                },
                {
                    "internalType": "uint256",
                    "name": "value",
                    "type": "uint256"
                }
            ],
            "name": "approveAndCall",
            "outputs": [
                {
                    "internalType": "bool",
                    "name": "",
                    "type": "bool"
                }
            ],
            "stateMutability": "nonpayable",
            "type": "function"
        },
        {
            "inputs": [
                {
                    "internalType": "address",
                    "name": "spender",
                    "type": "address"
                },
                {
                    "internalType": "uint256",
                    "name": "value",
                    "type": "uint256"
                },
                {
                    "internalType": "bytes",
                    "name": "data",
                    "type": "bytes"
                }
            ],
            "name": "approveAndCall",
            "outputs": [
                {
                    "internalType": "bool",
                    "name": "",
                    "type": "bool"
                }
            ],
            "stateMutability": "nonpayable",
            "type": "function"
        },
        {
            "inputs": [
                {
                    "internalType": "address",
                    "name": "account",
                    "type": "address"
                }
            ],
            "name": "balanceOf",
            "outputs": [
                {
                    "internalType": "uint256",
                    "name": "",
                    "type": "uint256"
                }
            ],
            "stateMutability": "view",
            "type": "function"
        },
        {
            "inputs": [
                {
                    "internalType": "uint256",
                    "name": "value",
                    "type": "uint256"
                }
            ],
            "name": "burn",
            "outputs": [],
            "stateMutability": "nonpayable",
            "type": "function"
        },
        {
            "inputs": [
                {
                    "internalType": "address",
                    "name": "account",
                    "type": "address"
                },
                {
                    "internalType": "uint256",
                    "name": "value",
                    "type": "uint256"
                }
            ],
            "name": "burnFrom",
            "outputs": [],
            "stateMutability": "nonpayable",
            "type": "function"
        },
        {
            "inputs": [],
            "name": "decimals",
            "outputs": [
                {
                    "internalType": "uint8",
                    "name": "",
                    "type": "uint8"
                }
            ],
            "stateMutability": "view",
            "type": "function"
        },
        {
            "inputs": [],
            "name": "depositManager",
            "outputs": [
                {
                    "internalType": "address",
                    "name": "",
                    "type": "address"
                }
            ],
            "stateMutability": "view",
            "type": "function"
        },
        {
            "inputs": [],
            "name": "eip712Domain",
            "outputs": [
                {
                    "internalType": "bytes1",
                    "name": "fields",
                    "type": "bytes1"
                },
                {
                    "internalType": "string",
                    "name": "name",
                    "type": "string"
                },
                {
                    "internalType": "string",
                    "name": "version",
                    "type": "string"
                },
                {
                    "internalType": "uint256",
                    "name": "chainId",
                    "type": "uint256"
                },
                {
                    "internalType": "address",
                    "name": "verifyingContract",
                    "type": "address"
                },
                {
                    "internalType": "bytes32",
                    "name": "salt",
                    "type": "bytes32"
                },
                {
                    "internalType": "uint256[]",
                    "name": "extensions",
                    "type": "uint256[]"
                }
            ],
            "stateMutability": "view",
            "type": "function"
        },
        {
            "inputs": [
                {
                    "internalType": "address",
                    "name": "to",
                    "type": "address"
                },
                {
                    "internalType": "uint256",
                    "name": "amount",
                    "type": "uint256"
                }
            ],
            "name": "mint",
            "outputs": [],
            "stateMutability": "nonpayable",
            "type": "function"
        },
        {
            "inputs": [],
            "name": "name",
            "outputs": [
                {
                    "internalType": "string",
                    "name": "",
                    "type": "string"
                }
            ],
            "stateMutability": "view",
            "type": "function"
        },
        {
            "inputs": [
                {
                    "internalType": "address",
                    "name": "owner",
                    "type": "address"
                }
            ],
            "name": "nonces",
            "outputs": [
                {
                    "internalType": "uint256",
                    "name": "",
                    "type": "uint256"
                }
            ],
            "stateMutability": "view",
            "type": "function"
        },
        {
            "inputs": [],
            "name": "owner",
            "outputs": [
                {
                    "internalType": "address",
                    "name": "",
                    "type": "address"
                }
            ],
            "stateMutability": "view",
            "type": "function"
        },
        {
            "inputs": [],
            "name": "pause",
            "outputs": [],
            "stateMutability": "nonpayable",
            "type": "function"
        },
        {
            "inputs": [],
            "name": "paused",
            "outputs": [
                {
                    "internalType": "bool",
                    "name": "",
                    "type": "bool"
                }
            ],
            "stateMutability": "view",
            "type": "function"
        },
        {
            "inputs": [
                {
                    "internalType": "address",
                    "name": "owner",
                    "type": "address"
                },
                {
                    "internalType": "address",
                    "name": "spender",
                    "type": "address"
                },
                {
                    "internalType": "uint256",
                    "name": "value",
                    "type": "uint256"
                },
                {
                    "internalType": "uint256",
                    "name": "deadline",
                    "type": "uint256"
                },
                {
                    "internalType": "uint8",
                    "name": "v",
                    "type": "uint8"
                },
                {
                    "internalType": "bytes32",
                    "name": "r",
                    "type": "bytes32"
                },
                {
                    "internalType": "bytes32",
                    "name": "s",
                    "type": "bytes32"
                }
            ],
            "name": "permit",
            "outputs": [],
            "stateMutability": "nonpayable",
            "type": "function"
        },
        {
            "inputs": [],
            "name": "renounceOwnership",
            "outputs": [],
            "stateMutability": "nonpayable",
            "type": "function"
        },
        {
            "inputs": [
                {
                    "internalType": "address",
                    "name": "newDepositManager",
                    "type": "address"
                }
            ],
            "name": "setDepositManager",
            "outputs": [],
            "stateMutability": "nonpayable",
            "type": "function"
        },
        {
            "inputs": [
                {
                    "internalType": "bytes4",
                    "name": "interfaceId",
                    "type": "bytes4"
                }
            ],
            "name": "supportsInterface",
            "outputs": [
                {
                    "internalType": "bool",
                    "name": "",
                    "type": "bool"
                }
            ],
            "stateMutability": "view",
            "type": "function"
        },
        {
            "inputs": [],
            "name": "symbol",
            "outputs": [
                {
                    "internalType": "string",
                    "name": "",
                    "type": "string"
                }
            ],
            "stateMutability": "view",
            "type": "function"
        },
        {
            "inputs": [],
            "name": "totalSupply",
            "outputs": [
                {
                    "internalType": "uint256",
                    "name": "",
                    "type": "uint256"
                }
            ],
            "stateMutability": "view",
            "type": "function"
        },
        {
            "inputs": [
                {
                    "internalType": "address",
                    "name": "to",
                    "type": "address"
                },
                {
                    "internalType": "uint256",
                    "name": "value",
                    "type": "uint256"
                }
            ],
            "name": "transfer",
            "outputs": [
                {
                    "internalType": "bool",
                    "name": "",
                    "type": "bool"
                }
            ],
            "stateMutability": "nonpayable",
            "type": "function"
        },
        {
            "inputs": [
                {
                    "internalType": "address",
                    "name": "to",
                    "type": "address"
                },
                {
                    "internalType": "uint256",
                    "name": "value",
                    "type": "uint256"
                }
            ],
            "name": "transferAndCall",
            "outputs": [
                {
                    "internalType": "bool",
                    "name": "",
                    "type": "bool"
                }
            ],
            "stateMutability": "nonpayable",
            "type": "function"
        },
        {
            "inputs": [
                {
                    "internalType": "address",
                    "name": "to",
                    "type": "address"
                },
                {
                    "internalType": "uint256",
                    "name": "value",
                    "type": "uint256"
                },
                {
                    "internalType": "bytes",
                    "name": "data",
                    "type": "bytes"
                }
            ],
            "name": "transferAndCall",
            "outputs": [
                {
                    "internalType": "bool",
                    "name": "",
                    "type": "bool"
                }
            ],
            "stateMutability": "nonpayable",
            "type": "function"
        },
        {
            "inputs": [
                {
                    "internalType": "address",
                    "name": "from",
                    "type": "address"
                },
                {
                    "internalType": "address",
                    "name": "to",
                    "type": "address"
                },
                {
                    "internalType": "uint256",
                    "name": "value",
                    "type": "uint256"
                }
            ],
            "name": "transferFrom",
            "outputs": [
                {
                    "internalType": "bool",
                    "name": "",
                    "type": "bool"
                }
            ],
            "stateMutability": "nonpayable",
            "type": "function"
        },
        {
            "inputs": [
                {
                    "internalType": "address",
                    "name": "from",
                    "type": "address"
                },
                {
                    "internalType": "address",
                    "name": "to",
                    "type": "address"
                },
                {
                    "internalType": "uint256",
                    "name": "value",
                    "type": "uint256"
                },
                {
                    "internalType": "bytes",
                    "name": "data",
                    "type": "bytes"
                }
            ],
            "name": "transferFromAndCall",
            "outputs": [
                {
                    "internalType": "bool",
                    "name": "",
                    "type": "bool"
                }
            ],
            "stateMutability": "nonpayable",
            "type": "function"
        },
        {
            "inputs": [
                {
                    "internalType": "address",
                    "name": "from",
                    "type": "address"
                },
                {
                    "internalType": "address",
                    "name": "to",
                    "type": "address"
                },
                {
                    "internalType": "uint256",
                    "name": "value",
                    "type": "uint256"
                }
            ],
            "name": "transferFromAndCall",
            "outputs": [
                {
                    "internalType": "bool",
                    "name": "",
                    "type": "bool"
                }
            ],
            "stateMutability": "nonpayable",
            "type": "function"
        },
        {
            "inputs": [
                {
                    "internalType": "address",
                    "name": "newOwner",
                    "type": "address"
                }
            ],
            "name": "transferOwnership",
            "outputs": [],
            "stateMutability": "nonpayable",
            "type": "function"
        },
        {
            "inputs": [],
            "name": "unpause",
            "outputs": [],
            "stateMutability": "nonpayable",
            "type": "function"
        }
    ],
    "bytecode": {
        "object": "0x6101606040523480156200001257600080fd5b5060405162002338380380620023388339810160408190526200003591620004a4565b604051806040016040528060058152602001644d6970707960d81b81525080604051806040016040528060018152602001603160f81b81525083604051806040016040528060058152602001644d6970707960d81b815250604051806040016040528060058152602001644d4950505960d81b8152508160039081620000bc919062000580565b506004620000cb828262000580565b5050506001600160a01b038116620000fe57604051631e4fbdf760e01b8152600060048201526024015b60405180910390fd5b6200010981620001f0565b50620001178260066200024a565b61012052620001288160076200024a565b61014052815160208084019190912060e052815190820120610100524660a052620001b660e05161010051604080517f8b73c3c69bb8fe3d512ecc4cf759cc79239f7b179b0ffacaa9a75d522b39400f60208201529081019290925260608201524660808201523060a082015260009060c00160405160208183030381529060405280519060200120905090565b60805250503060c05250620001e882620001d36012600a6200075f565b620001e290620f424062000777565b62000283565b50506200081c565b600580546001600160a01b03838116610100818102610100600160a81b031985161790945560405193909204169182907f8be0079c531659141344cd1fd0a4f28419497f9722a3daafe3b4186f6b6457e090600090a35050565b60006020835110156200026a576200026283620002c1565b90506200027d565b8162000277848262000580565b5060ff90505b92915050565b6001600160a01b038216620002af5760405163ec442f0560e01b815260006004820152602401620000f5565b620002bd6000838362000304565b5050565b600080829050601f81511115620002ef578260405163305a27a960e01b8152600401620000f5919062000791565b8051620002fc82620007e1565b179392505050565b6200031183838362000316565b505050565b620003206200032d565b6200031183838362000354565b60055460ff1615620003525760405163d93c066560e01b815260040160405180910390fd5b565b6001600160a01b0383166200038357806002600082825462000377919062000806565b90915550620003f79050565b6001600160a01b03831660009081526020819052604090205481811015620003d85760405163391434e360e21b81526001600160a01b03851660048201526024810182905260448101839052606401620000f5565b6001600160a01b03841660009081526020819052604090209082900390555b6001600160a01b038216620004155760028054829003905562000434565b6001600160a01b03821660009081526020819052604090208054820190555b816001600160a01b0316836001600160a01b03167fddf252ad1be2c89b69c2b068fc378daa952ba7f163c4a11628f55a4df523b3ef836040516200047a91815260200190565b60405180910390a3505050565b80516001600160a01b03811681146200049f57600080fd5b919050565b60008060408385031215620004b857600080fd5b620004c38362000487565b9150620004d36020840162000487565b90509250929050565b634e487b7160e01b600052604160045260246000fd5b600181811c908216806200050757607f821691505b6020821081036200052857634e487b7160e01b600052602260045260246000fd5b50919050565b601f8211156200031157600081815260208120601f850160051c81016020861015620005575750805b601f850160051c820191505b81811015620005785782815560010162000563565b505050505050565b81516001600160401b038111156200059c576200059c620004dc565b620005b481620005ad8454620004f2565b846200052e565b602080601f831160018114620005ec5760008415620005d35750858301515b600019600386901b1c1916600185901b17855562000578565b600085815260208120601f198616915b828110156200061d57888601518255948401946001909101908401620005fc565b50858210156200063c5787850151600019600388901b60f8161c191681555b5050505050600190811b01905550565b634e487b7160e01b600052601160045260246000fd5b600181815b80851115620006a35781600019048211156200068757620006876200064c565b808516156200069557918102915b93841c939080029062000667565b509250929050565b600082620006bc575060016200027d565b81620006cb575060006200027d565b8160018114620006e45760028114620006ef576200070f565b60019150506200027d565b60ff8411156200070357620007036200064c565b50506001821b6200027d565b5060208310610133831016604e8410600b841016171562000734575081810a6200027d565b62000740838362000662565b80600019048211156200075757620007576200064c565b029392505050565b60006200077060ff841683620006ab565b9392505050565b80820281158282048414176200027d576200027d6200064c565b600060208083528351808285015260005b81811015620007c057858101830151858201604001528201620007a2565b506000604082860101526040601f19601f8301168501019250505092915050565b80516020808301519190811015620005285760001960209190910360031b1b16919050565b808201808211156200027d576200027d6200064c565b60805160a05160c05160e051610100516101205161014051611ac1620008776000396000610ef301526000610ec601526000610bc801526000610ba001526000610afb01526000610b2501526000610b4f0152611ac16000f3fe608060405234801561001057600080fd5b50600436106101e55760003560e01c80636c7ac9d81161010f57806395d89b41116100a2578063d505accf11610071578063d505accf146103f9578063d8fbe9941461040c578063dd62ed3e1461041f578063f2fde38b1461045857600080fd5b806395d89b41146103b8578063a9059cbb146103c0578063c1d34b89146103d3578063cae9ca51146103e657600080fd5b80637ecebe00116100de5780637ecebe001461036c5780638456cb591461037f57806384b0196e146103875780638da5cb5b146103a257600080fd5b80636c7ac9d8146102fd57806370a0823114610328578063715018a61461035157806379cc67901461035957600080fd5b8063313ce567116101875780634000aea0116101565780634000aea0146102b957806340c10f19146102cc57806342966c68146102df5780635c975abb146102f257600080fd5b8063313ce567146102875780633177029f146102965780633644e515146102a95780633f4ba83a146102b157600080fd5b80631296ee62116101c35780631296ee621461023a57806318160ddd1461024d578063228d71a91461025f57806323b872dd1461027457600080fd5b806301ffc9a7146101ea57806306fdde0314610212578063095ea7b314610227575b600080fd5b6101fd6101f83660046115c6565b61046b565b60405190151581526020015b60405180910390f35b61021a6104a2565b6040516102099190611629565b6101fd610235366004611658565b610534565b6101fd610248366004611658565b61054c565b6002545b604051908152602001610209565b61027261026d366004611682565b61056f565b005b6101fd61028236600461169d565b610599565b60405160128152602001610209565b6101fd6102a4366004611658565b6105bd565b6102516105d9565b6102726105e8565b6101fd6102c736600461177c565b6105fa565b6102726102da366004611658565b610647565b6102726102ed3660046117d3565b6106d4565b60055460ff166101fd565b600954610310906001600160a01b031681565b6040516001600160a01b039091168152602001610209565b610251610336366004611682565b6001600160a01b031660009081526020819052604090205490565b6102726106e1565b610272610367366004611658565b6106f3565b61025161037a366004611682565b610708565b610272610726565b61038f610736565b60405161020997969594939291906117ec565b60055461010090046001600160a01b0316610310565b61021a61077c565b6101fd6103ce366004611658565b61078b565b6101fd6103e1366004611882565b610799565b6101fd6103f436600461177c565b6107ea565b6102726104073660046118ea565b610831565b6101fd61041a36600461169d565b61096b565b61025161042d36600461195d565b6001600160a01b03918216600090815260016020908152604080832093909416825291909152205490565b610272610466366004611682565b610990565b60006001600160e01b0319821663b0202a1160e01b148061049c57506301ffc9a760e01b6001600160e01b03198316145b92915050565b6060600380546104b190611990565b80601f01602080910402602001604051908101604052809291908181526020018280546104dd90611990565b801561052a5780601f106104ff5761010080835404028352916020019161052a565b820191906000526020600020905b81548152906001019060200180831161050d57829003601f168201915b5050505050905090565b6000336105428185856109cb565b5060019392505050565b60006105688383604051806020016040528060008152506105fa565b9392505050565b6105776109dd565b600980546001600160a01b0319166001600160a01b0392909216919091179055565b6000336105a7858285610a10565b6105b2858585610a8f565b506001949350505050565b60006105688383604051806020016040528060008152506107ea565b60006105e3610aee565b905090565b6105f06109dd565b6105f8610c19565b565b6000610606848461078b565b61063a5760405163118d81d760e11b81526001600160a01b0385166004820152602481018490526044015b60405180910390fd5b6105423333868686610c6b565b60055461010090046001600160a01b03166001600160a01b0316336001600160a01b0316148061068157506009546001600160a01b031633145b6106c65760405162461bcd60e51b8152602060048201526016602482015275139bdd08185d5d1a1bdc9a5e9959081d1bc81b5a5b9d60521b6044820152606401610631565b6106d08282610dbc565b5050565b6106de3382610df2565b50565b6106e96109dd565b6105f86000610e28565b6106fe823383610a10565b6106d08282610df2565b6001600160a01b03811660009081526008602052604081205461049c565b61072e6109dd565b6105f8610e82565b60006060806000806000606061074a610ebf565b610752610eec565b60408051600080825260208201909252600f60f81b9b939a50919850469750309650945092509050565b6060600480546104b190611990565b600033610542818585610a8f565b60006107a6858585610599565b6107dd57604051635ab42af360e11b81526001600160a01b0380871660048301528516602482015260448101849052606401610631565b6105b23386868686610c6b565b60006107f68484610534565b61082557604051631439557160e21b81526001600160a01b038516600482015260248101849052604401610631565b61054233858585610f19565b834211156108555760405163313c898160e11b815260048101859052602401610631565b60007f6e71edae12b1b97f4d1f60370fef10105fa2faae0126114a169c64845d6126c98888886108a28c6001600160a01b0316600090815260086020526040902080546001810190915590565b6040805160208101969096526001600160a01b0394851690860152929091166060840152608083015260a082015260c0810186905260e00160405160208183030381529060405280519060200120905060006108fd82611057565b9050600061090d82878787611084565b9050896001600160a01b0316816001600160a01b031614610954576040516325c0072360e11b81526001600160a01b0380831660048301528b166024820152604401610631565b61095f8a8a8a6109cb565b50505050505050505050565b600061098884848460405180602001604052806000815250610799565b949350505050565b6109986109dd565b6001600160a01b0381166109c257604051631e4fbdf760e01b815260006004820152602401610631565b6106de81610e28565b6109d883838360016110b2565b505050565b6005546001600160a01b036101009091041633146105f85760405163118cdaa760e01b8152336004820152602401610631565b6001600160a01b03838116600090815260016020908152604080832093861683529290522054600019811015610a895781811015610a7a57604051637dc7a0d960e11b81526001600160a01b03841660048201526024810182905260448101839052606401610631565b610a89848484840360006110b2565b50505050565b6001600160a01b038316610ab957604051634b637e8f60e11b815260006004820152602401610631565b6001600160a01b038216610ae35760405163ec442f0560e01b815260006004820152602401610631565b6109d8838383611187565b6000306001600160a01b037f000000000000000000000000000000000000000000000000000000000000000016148015610b4757507f000000000000000000000000000000000000000000000000000000000000000046145b15610b7157507f000000000000000000000000000000000000000000000000000000000000000090565b6105e3604080517f8b73c3c69bb8fe3d512ecc4cf759cc79239f7b179b0ffacaa9a75d522b39400f60208201527f0000000000000000000000000000000000000000000000000000000000000000918101919091527f000000000000000000000000000000000000000000000000000000000000000060608201524660808201523060a082015260009060c00160405160208183030381529060405280519060200120905090565b610c21611192565b6005805460ff191690557f5db9ee0a495bf2e6ff9c91a7834c1ba4fdd244a5e8aa4e537bd38aeae4b073aa335b6040516001600160a01b03909116815260200160405180910390a1565b826001600160a01b03163b600003610ca1576040516322a5b36760e21b81526001600160a01b0384166004820152602401610631565b604051632229f29760e21b81526001600160a01b038416906388a7ca5c90610cd39088908890879087906004016119ca565b6020604051808303816000875af1925050508015610d0e575060408051601f3d908101601f19168201909252610d0b91810190611a07565b60015b610d77573d808015610d3c576040519150601f19603f3d011682016040523d82523d6000602084013e610d41565b606091505b508051600003610d6f576040516322a5b36760e21b81526001600160a01b0385166004820152602401610631565b805181602001fd5b6001600160e01b03198116632229f29760e21b14610db3576040516322a5b36760e21b81526001600160a01b0385166004820152602401610631565b505b5050505050565b6001600160a01b038216610de65760405163ec442f0560e01b815260006004820152602401610631565b6106d060008383611187565b6001600160a01b038216610e1c57604051634b637e8f60e11b815260006004820152602401610631565b6106d082600083611187565b600580546001600160a01b03838116610100818102610100600160a81b031985161790945560405193909204169182907f8be0079c531659141344cd1fd0a4f28419497f9722a3daafe3b4186f6b6457e090600090a35050565b610e8a6111b5565b6005805460ff191660011790557f62e78cea01bee320cd4e420270b5ea74000d11b0c9f74754ebdbfc544b05a258610c4e3390565b60606105e37f000000000000000000000000000000000000000000000000000000000000000060066111d9565b60606105e37f000000000000000000000000000000000000000000000000000000000000000060076111d9565b826001600160a01b03163b600003610f4f5760405163deb6d3ed60e01b81526001600160a01b0384166004820152602401610631565b6040516307b04a2d60e41b81526001600160a01b03841690637b04a2d090610f7f90879086908690600401611a24565b6020604051808303816000875af1925050508015610fba575060408051601f3d908101601f19168201909252610fb791810190611a07565b60015b61101b573d808015610fe8576040519150601f19603f3d011682016040523d82523d6000602084013e610fed565b606091505b508051600003610d6f5760405163deb6d3ed60e01b81526001600160a01b0385166004820152602401610631565b6001600160e01b031981166307b04a2d60e41b14610db55760405163deb6d3ed60e01b81526001600160a01b0385166004820152602401610631565b600061049c611064610aee565b8360405161190160f01b8152600281019290925260228201526042902090565b60008060008061109688888888611284565b9250925092506110a68282611353565b50909695505050505050565b6001600160a01b0384166110dc5760405163e602df0560e01b815260006004820152602401610631565b6001600160a01b03831661110657604051634a1406b160e11b815260006004820152602401610631565b6001600160a01b0380851660009081526001602090815260408083209387168352929052208290558015610a8957826001600160a01b0316846001600160a01b03167f8c5be1e5ebec7d5bd14f71427d1e84f3dd0314c0f7b2291e5b200ac8c7c3b9258460405161117991815260200190565b60405180910390a350505050565b6109d883838361140c565b60055460ff166105f857604051638dfc202b60e01b815260040160405180910390fd5b60055460ff16156105f85760405163d93c066560e01b815260040160405180910390fd5b606060ff83146111f3576111ec8361141f565b905061049c565b8180546111ff90611990565b80601f016020809104026020016040519081016040528092919081815260200182805461122b90611990565b80156112785780601f1061124d57610100808354040283529160200191611278565b820191906000526020600020905b81548152906001019060200180831161125b57829003601f168201915b5050505050905061049c565b600080807f7fffffffffffffffffffffffffffffff5d576e7357a4501ddfe92f46681b20a08411156112bf5750600091506003905082611349565b604080516000808252602082018084528a905260ff891692820192909252606081018790526080810186905260019060a0016020604051602081039080840390855afa158015611313573d6000803e3d6000fd5b5050604051601f1901519150506001600160a01b03811661133f57506000925060019150829050611349565b9250600091508190505b9450945094915050565b600082600381111561136757611367611a54565b03611370575050565b600182600381111561138457611384611a54565b036113a25760405163f645eedf60e01b815260040160405180910390fd5b60028260038111156113b6576113b6611a54565b036113d75760405163fce698f760e01b815260048101829052602401610631565b60038260038111156113eb576113eb611a54565b036106d0576040516335e2f38360e21b815260048101829052602401610631565b6114146111b5565b6109d883838361145e565b6060600061142c83611588565b604080516020808252818301909252919250600091906020820181803683375050509182525060208101929092525090565b6001600160a01b03831661148957806002600082825461147e9190611a6a565b909155506114fb9050565b6001600160a01b038316600090815260208190526040902054818110156114dc5760405163391434e360e21b81526001600160a01b03851660048201526024810182905260448101839052606401610631565b6001600160a01b03841660009081526020819052604090209082900390555b6001600160a01b03821661151757600280548290039055611536565b6001600160a01b03821660009081526020819052604090208054820190555b816001600160a01b0316836001600160a01b03167fddf252ad1be2c89b69c2b068fc378daa952ba7f163c4a11628f55a4df523b3ef8360405161157b91815260200190565b60405180910390a3505050565b600060ff8216601f81111561049c57604051632cd44ac360e21b815260040160405180910390fd5b6001600160e01b0319811681146106de57600080fd5b6000602082840312156115d857600080fd5b8135610568816115b0565b6000815180845260005b81811015611609576020818501810151868301820152016115ed565b506000602082860101526020601f19601f83011685010191505092915050565b60208152600061056860208301846115e3565b80356001600160a01b038116811461165357600080fd5b919050565b6000806040838503121561166b57600080fd5b6116748361163c565b946020939093013593505050565b60006020828403121561169457600080fd5b6105688261163c565b6000806000606084860312156116b257600080fd5b6116bb8461163c565b92506116c96020850161163c565b9150604084013590509250925092565b634e487b7160e01b600052604160045260246000fd5b600082601f83011261170057600080fd5b813567ffffffffffffffff8082111561171b5761171b6116d9565b604051601f8301601f19908116603f01168101908282118183101715611743576117436116d9565b8160405283815286602085880101111561175c57600080fd5b836020870160208301376000602085830101528094505050505092915050565b60008060006060848603121561179157600080fd5b61179a8461163c565b925060208401359150604084013567ffffffffffffffff8111156117bd57600080fd5b6117c9868287016116ef565b9150509250925092565b6000602082840312156117e557600080fd5b5035919050565b60ff60f81b881681526000602060e08184015261180c60e084018a6115e3565b838103604085015261181e818a6115e3565b606085018990526001600160a01b038816608086015260a0850187905284810360c0860152855180825283870192509083019060005b8181101561187057835183529284019291840191600101611854565b50909c9b505050505050505050505050565b6000806000806080858703121561189857600080fd5b6118a18561163c565b93506118af6020860161163c565b925060408501359150606085013567ffffffffffffffff8111156118d257600080fd5b6118de878288016116ef565b91505092959194509250565b600080600080600080600060e0888a03121561190557600080fd5b61190e8861163c565b965061191c6020890161163c565b95506040880135945060608801359350608088013560ff8116811461194057600080fd5b9699959850939692959460a0840135945060c09093013592915050565b6000806040838503121561197057600080fd5b6119798361163c565b91506119876020840161163c565b90509250929050565b600181811c908216806119a457607f821691505b6020821081036119c457634e487b7160e01b600052602260045260246000fd5b50919050565b6001600160a01b03858116825284166020820152604081018390526080606082018190526000906119fd908301846115e3565b9695505050505050565b600060208284031215611a1957600080fd5b8151610568816115b0565b60018060a01b0384168152826020820152606060408201526000611a4b60608301846115e3565b95945050505050565b634e487b7160e01b600052602160045260246000fd5b8082018082111561049c57634e487b7160e01b600052601160045260246000fdfea2646970667358221220e7716420e738aad0008e67f506b8cf353a9c7a602b86ad37d19e838101bc1c7a64736f6c63430008140033",
        "linkReferences": {}
    },
    "methodIdentifiers": {
        "DOMAIN_SEPARATOR()": "3644e515",
        "allowance(address,address)": "dd62ed3e",
        "approve(address,uint256)": "095ea7b3",
        "approveAndCall(address,uint256)": "3177029f",
        "approveAndCall(address,uint256,bytes)": "cae9ca51",
        "balanceOf(address)": "70a08231",
        "burn(uint256)": "42966c68",
        "burnFrom(address,uint256)": "79cc6790",
        "decimals()": "313ce567",
        "depositManager()": "6c7ac9d8",
        "eip712Domain()": "84b0196e",
        "mint(address,uint256)": "40c10f19",
        "name()": "06fdde03",
        "nonces(address)": "7ecebe00",
        "owner()": "8da5cb5b",
        "pause()": "8456cb59",
        "paused()": "5c975abb",
        "permit(address,address,uint256,uint256,uint8,bytes32,bytes32)": "d505accf",
        "renounceOwnership()": "715018a6",
        "setDepositManager(address)": "228d71a9",
        "supportsInterface(bytes4)": "01ffc9a7",
        "symbol()": "95d89b41",
        "totalSupply()": "18160ddd",
        "transfer(address,uint256)": "a9059cbb",
        "transferAndCall(address,uint256)": "1296ee62",
        "transferAndCall(address,uint256,bytes)": "4000aea0",
        "transferFrom(address,address,uint256)": "23b872dd",
        "transferFromAndCall(address,address,uint256)": "d8fbe994",
        "transferFromAndCall(address,address,uint256,bytes)": "c1d34b89",
        "transferOwnership(address)": "f2fde38b",
        "unpause()": "3f4ba83a"
    },
    "id": 55
}